{
  "contractName": "NFT",
  "abi": [
    {
      "inputs": [
        {
          "internalType": "string",
          "name": "_name",
          "type": "string"
        },
        {
          "internalType": "string",
          "name": "_symbol",
          "type": "string"
        },
        {
          "internalType": "uint256",
          "name": "_MAX_SUPPLY",
          "type": "uint256"
        }
      ],
      "stateMutability": "nonpayable",
      "type": "constructor"
    },
    {
      "anonymous": false,
      "inputs": [
        {
          "indexed": true,
          "internalType": "address",
          "name": "owner",
          "type": "address"
        },
        {
          "indexed": true,
          "internalType": "address",
          "name": "approved",
          "type": "address"
        },
        {
          "indexed": true,
          "internalType": "uint256",
          "name": "tokenId",
          "type": "uint256"
        }
      ],
      "name": "Approval",
      "type": "event"
    },
    {
      "anonymous": false,
      "inputs": [
        {
          "indexed": true,
          "internalType": "address",
          "name": "owner",
          "type": "address"
        },
        {
          "indexed": true,
          "internalType": "address",
          "name": "operator",
          "type": "address"
        },
        {
          "indexed": false,
          "internalType": "bool",
          "name": "approved",
          "type": "bool"
        }
      ],
      "name": "ApprovalForAll",
      "type": "event"
    },
    {
      "anonymous": false,
      "inputs": [
        {
          "indexed": true,
          "internalType": "address",
          "name": "previousOwner",
          "type": "address"
        },
        {
          "indexed": true,
          "internalType": "address",
          "name": "newOwner",
          "type": "address"
        }
      ],
      "name": "OwnershipTransferred",
      "type": "event"
    },
    {
      "anonymous": false,
      "inputs": [
        {
          "indexed": true,
          "internalType": "address",
          "name": "from",
          "type": "address"
        },
        {
          "indexed": true,
          "internalType": "address",
          "name": "to",
          "type": "address"
        },
        {
          "indexed": true,
          "internalType": "uint256",
          "name": "tokenId",
          "type": "uint256"
        }
      ],
      "name": "Transfer",
      "type": "event"
    },
    {
      "inputs": [],
      "name": "MAX_SUPPLY",
      "outputs": [
        {
          "internalType": "uint256",
          "name": "",
          "type": "uint256"
        }
      ],
      "stateMutability": "view",
      "type": "function",
      "constant": true
    },
    {
      "inputs": [
        {
          "internalType": "address",
          "name": "to",
          "type": "address"
        },
        {
          "internalType": "uint256",
          "name": "tokenId",
          "type": "uint256"
        }
      ],
      "name": "approve",
      "outputs": [],
      "stateMutability": "nonpayable",
      "type": "function"
    },
    {
      "inputs": [
        {
          "internalType": "address",
          "name": "owner",
          "type": "address"
        }
      ],
      "name": "balanceOf",
      "outputs": [
        {
          "internalType": "uint256",
          "name": "",
          "type": "uint256"
        }
      ],
      "stateMutability": "view",
      "type": "function",
      "constant": true
    },
    {
      "inputs": [
        {
          "internalType": "uint256",
          "name": "tokenId",
          "type": "uint256"
        }
      ],
      "name": "getApproved",
      "outputs": [
        {
          "internalType": "address",
          "name": "",
          "type": "address"
        }
      ],
      "stateMutability": "view",
      "type": "function",
      "constant": true
    },
    {
      "inputs": [
        {
          "internalType": "address",
          "name": "owner",
          "type": "address"
        },
        {
          "internalType": "address",
          "name": "operator",
          "type": "address"
        }
      ],
      "name": "isApprovedForAll",
      "outputs": [
        {
          "internalType": "bool",
          "name": "",
          "type": "bool"
        }
      ],
      "stateMutability": "view",
      "type": "function",
      "constant": true
    },
    {
      "inputs": [],
      "name": "name",
      "outputs": [
        {
          "internalType": "string",
          "name": "",
          "type": "string"
        }
      ],
      "stateMutability": "view",
      "type": "function",
      "constant": true
    },
    {
      "inputs": [],
      "name": "owner",
      "outputs": [
        {
          "internalType": "address",
          "name": "",
          "type": "address"
        }
      ],
      "stateMutability": "view",
      "type": "function",
      "constant": true
    },
    {
      "inputs": [
        {
          "internalType": "uint256",
          "name": "tokenId",
          "type": "uint256"
        }
      ],
      "name": "ownerOf",
      "outputs": [
        {
          "internalType": "address",
          "name": "",
          "type": "address"
        }
      ],
      "stateMutability": "view",
      "type": "function",
      "constant": true
    },
    {
      "inputs": [],
      "name": "renounceOwnership",
      "outputs": [],
      "stateMutability": "nonpayable",
      "type": "function"
    },
    {
      "inputs": [
        {
          "internalType": "address",
          "name": "from",
          "type": "address"
        },
        {
          "internalType": "address",
          "name": "to",
          "type": "address"
        },
        {
          "internalType": "uint256",
          "name": "tokenId",
          "type": "uint256"
        }
      ],
      "name": "safeTransferFrom",
      "outputs": [],
      "stateMutability": "nonpayable",
      "type": "function"
    },
    {
      "inputs": [
        {
          "internalType": "address",
          "name": "from",
          "type": "address"
        },
        {
          "internalType": "address",
          "name": "to",
          "type": "address"
        },
        {
          "internalType": "uint256",
          "name": "tokenId",
          "type": "uint256"
        },
        {
          "internalType": "bytes",
          "name": "_data",
          "type": "bytes"
        }
      ],
      "name": "safeTransferFrom",
      "outputs": [],
      "stateMutability": "nonpayable",
      "type": "function"
    },
    {
      "inputs": [
        {
          "internalType": "address",
          "name": "operator",
          "type": "address"
        },
        {
          "internalType": "bool",
          "name": "approved",
          "type": "bool"
        }
      ],
      "name": "setApprovalForAll",
      "outputs": [],
      "stateMutability": "nonpayable",
      "type": "function"
    },
    {
      "inputs": [
        {
          "internalType": "bytes4",
          "name": "interfaceId",
          "type": "bytes4"
        }
      ],
      "name": "supportsInterface",
      "outputs": [
        {
          "internalType": "bool",
          "name": "",
          "type": "bool"
        }
      ],
      "stateMutability": "view",
      "type": "function",
      "constant": true
    },
    {
      "inputs": [],
      "name": "symbol",
      "outputs": [
        {
          "internalType": "string",
          "name": "",
          "type": "string"
        }
      ],
      "stateMutability": "view",
      "type": "function",
      "constant": true
    },
    {
      "inputs": [
        {
          "internalType": "address",
          "name": "from",
          "type": "address"
        },
        {
          "internalType": "address",
          "name": "to",
          "type": "address"
        },
        {
          "internalType": "uint256",
          "name": "tokenId",
          "type": "uint256"
        }
      ],
      "name": "transferFrom",
      "outputs": [],
      "stateMutability": "nonpayable",
      "type": "function"
    },
    {
      "inputs": [
        {
          "internalType": "address",
          "name": "newOwner",
          "type": "address"
        }
      ],
      "name": "transferOwnership",
      "outputs": [],
      "stateMutability": "nonpayable",
      "type": "function"
    },
    {
      "inputs": [
        {
          "internalType": "uint256",
          "name": "tokenId",
          "type": "uint256"
        }
      ],
      "name": "tokenURI",
      "outputs": [
        {
          "internalType": "string",
          "name": "",
          "type": "string"
        }
      ],
      "stateMutability": "view",
      "type": "function",
      "constant": true
    },
    {
      "inputs": [
        {
          "internalType": "string",
          "name": "_tokenUrl",
          "type": "string"
        }
      ],
      "name": "createNFT",
      "outputs": [
        {
          "internalType": "uint256",
          "name": "",
          "type": "uint256"
        }
      ],
      "stateMutability": "nonpayable",
      "type": "function"
    },
    {
      "inputs": [
        {
          "internalType": "uint256",
          "name": "tokenId",
          "type": "uint256"
        }
      ],
      "name": "burnTokens",
      "outputs": [],
      "stateMutability": "nonpayable",
      "type": "function"
    }
  ],
  "bytecode": "0x60806040523480156200001157600080fd5b5060405162003867380380620038678339818101604052810190620000379190620003f3565b82828160009080519060200190620000519291906200016b565b5080600190805190602001906200006a9291906200016b565b5050506200008d620000816200009d60201b60201c565b620000a560201b60201c565b80600981905550505050620004f2565b600033905090565b6000600760009054906101000a900473ffffffffffffffffffffffffffffffffffffffff16905081600760006101000a81548173ffffffffffffffffffffffffffffffffffffffff021916908373ffffffffffffffffffffffffffffffffffffffff1602179055508173ffffffffffffffffffffffffffffffffffffffff168173ffffffffffffffffffffffffffffffffffffffff167f8be0079c531659141344cd1fd0a4f28419497f9722a3daafe3b4186f6b6457e060405160405180910390a35050565b8280546200017990620004bc565b90600052602060002090601f0160209004810192826200019d5760008555620001e9565b82601f10620001b857805160ff1916838001178555620001e9565b82800160010185558215620001e9579182015b82811115620001e8578251825591602001919060010190620001cb565b5b509050620001f89190620001fc565b5090565b5b8082111562000217576000816000905550600101620001fd565b5090565b6000604051905090565b600080fd5b600080fd5b600080fd5b600080fd5b6000601f19601f8301169050919050565b7f4e487b7100000000000000000000000000000000000000000000000000000000600052604160045260246000fd5b620002848262000239565b810181811067ffffffffffffffff82111715620002a657620002a56200024a565b5b80604052505050565b6000620002bb6200021b565b9050620002c9828262000279565b919050565b600067ffffffffffffffff821115620002ec57620002eb6200024a565b5b620002f78262000239565b9050602081019050919050565b60005b838110156200032457808201518184015260208101905062000307565b8381111562000334576000848401525b50505050565b6000620003516200034b84620002ce565b620002af565b90508281526020810184848401111562000370576200036f62000234565b5b6200037d84828562000304565b509392505050565b600082601f8301126200039d576200039c6200022f565b5b8151620003af8482602086016200033a565b91505092915050565b6000819050919050565b620003cd81620003b8565b8114620003d957600080fd5b50565b600081519050620003ed81620003c2565b92915050565b6000806000606084860312156200040f576200040e62000225565b5b600084015167ffffffffffffffff81111562000430576200042f6200022a565b5b6200043e8682870162000385565b935050602084015167ffffffffffffffff8111156200046257620004616200022a565b5b620004708682870162000385565b92505060406200048386828701620003dc565b9150509250925092565b7f4e487b7100000000000000000000000000000000000000000000000000000000600052602260045260246000fd5b60006002820490506001821680620004d557607f821691505b60208210811415620004ec57620004eb6200048d565b5b50919050565b61336580620005026000396000f3fe608060405234801561001057600080fd5b50600436106101215760003560e01c806370a08231116100ad578063b88d4fde11610071578063b88d4fde146102f4578063c87b56dd14610310578063da2ed03e14610340578063e985e9c514610370578063f2fde38b146103a057610121565b806370a0823114610262578063715018a6146102925780638da5cb5b1461029c57806395d89b41146102ba578063a22cb465146102d857610121565b806323b872dd116100f457806323b872dd146101c057806332cb6b0c146101dc57806342842e0e146101fa5780636352211e146102165780636d1b229d1461024657610121565b806301ffc9a71461012657806306fdde0314610156578063081812fc14610174578063095ea7b3146101a4575b600080fd5b610140600480360381019061013b9190611f70565b6103bc565b60405161014d9190611fb8565b60405180910390f35b61015e61049e565b60405161016b919061206c565b60405180910390f35b61018e600480360381019061018991906120c4565b610530565b60405161019b9190612132565b60405180910390f35b6101be60048036038101906101b99190612179565b6105b5565b005b6101da60048036038101906101d591906121b9565b6106cd565b005b6101e461072d565b6040516101f1919061221b565b60405180910390f35b610214600480360381019061020f91906121b9565b610733565b005b610230600480360381019061022b91906120c4565b610753565b60405161023d9190612132565b60405180910390f35b610260600480360381019061025b91906120c4565b610805565b005b61027c60048036038101906102779190612236565b61088d565b604051610289919061221b565b60405180910390f35b61029a610945565b005b6102a46109cd565b6040516102b19190612132565b60405180910390f35b6102c26109f7565b6040516102cf919061206c565b60405180910390f35b6102f260048036038101906102ed919061228f565b610a89565b005b61030e60048036038101906103099190612404565b610a9f565b005b61032a600480360381019061032591906120c4565b610b01565b604051610337919061206c565b60405180910390f35b61035a60048036038101906103559190612528565b610b13565b604051610367919061221b565b60405180910390f35b61038a60048036038101906103859190612571565b610b78565b6040516103979190611fb8565b60405180910390f35b6103ba60048036038101906103b59190612236565b610c0c565b005b60007f80ac58cd000000000000000000000000000000000000000000000000000000007bffffffffffffffffffffffffffffffffffffffffffffffffffffffff1916827bffffffffffffffffffffffffffffffffffffffffffffffffffffffff1916148061048757507f5b5e139f000000000000000000000000000000000000000000000000000000007bffffffffffffffffffffffffffffffffffffffffffffffffffffffff1916827bffffffffffffffffffffffffffffffffffffffffffffffffffffffff1916145b80610497575061049682610d04565b5b9050919050565b6060600080546104ad906125e0565b80601f01602080910402602001604051908101604052809291908181526020018280546104d9906125e0565b80156105265780601f106104fb57610100808354040283529160200191610526565b820191906000526020600020905b81548152906001019060200180831161050957829003601f168201915b5050505050905090565b600061053b82610d6e565b61057a576040517f08c379a000000000000000000000000000000000000000000000000000000000815260040161057190612684565b60405180910390fd5b6004600083815260200190815260200160002060009054906101000a900473ffffffffffffffffffffffffffffffffffffffff169050919050565b60006105c082610753565b90508073ffffffffffffffffffffffffffffffffffffffff168373ffffffffffffffffffffffffffffffffffffffff161415610631576040517f08c379a000000000000000000000000000000000000000000000000000000000815260040161062890612716565b60405180910390fd5b8073ffffffffffffffffffffffffffffffffffffffff16610650610dda565b73ffffffffffffffffffffffffffffffffffffffff16148061067f575061067e81610679610dda565b610b78565b5b6106be576040517f08c379a00000000000000000000000000000000000000000000000000000000081526004016106b5906127a8565b60405180910390fd5b6106c88383610de2565b505050565b6106de6106d8610dda565b82610e9b565b61071d576040517f08c379a00000000000000000000000000000000000000000000000000000000081526004016107149061283a565b60405180910390fd5b610728838383610f79565b505050565b60095481565b61074e83838360405180602001604052806000815250610a9f565b505050565b6000806002600084815260200190815260200160002060009054906101000a900473ffffffffffffffffffffffffffffffffffffffff169050600073ffffffffffffffffffffffffffffffffffffffff168173ffffffffffffffffffffffffffffffffffffffff1614156107fc576040517f08c379a00000000000000000000000000000000000000000000000000000000081526004016107f3906128cc565b60405180910390fd5b80915050919050565b61080d610dda565b73ffffffffffffffffffffffffffffffffffffffff1661082b6109cd565b73ffffffffffffffffffffffffffffffffffffffff1614610881576040517f08c379a000000000000000000000000000000000000000000000000000000000815260040161087890612938565b60405180910390fd5b61088a816111d5565b50565b60008073ffffffffffffffffffffffffffffffffffffffff168273ffffffffffffffffffffffffffffffffffffffff1614156108fe576040517f08c379a00000000000000000000000000000000000000000000000000000000081526004016108f5906129ca565b60405180910390fd5b600360008373ffffffffffffffffffffffffffffffffffffffff1673ffffffffffffffffffffffffffffffffffffffff168152602001908152602001600020549050919050565b61094d610dda565b73ffffffffffffffffffffffffffffffffffffffff1661096b6109cd565b73ffffffffffffffffffffffffffffffffffffffff16146109c1576040517f08c379a00000000000000000000000000000000000000000000000000000000081526004016109b890612938565b60405180910390fd5b6109cb60006111e1565b565b6000600760009054906101000a900473ffffffffffffffffffffffffffffffffffffffff16905090565b606060018054610a06906125e0565b80601f0160208091040260200160405190810160405280929190818152602001828054610a32906125e0565b8015610a7f5780601f10610a5457610100808354040283529160200191610a7f565b820191906000526020600020905b815481529060010190602001808311610a6257829003601f168201915b5050505050905090565b610a9b610a94610dda565b83836112a7565b5050565b610ab0610aaa610dda565b83610e9b565b610aef576040517f08c379a0000000000000000000000000000000000000000000000000000000008152600401610ae69061283a565b60405180910390fd5b610afb84848484611414565b50505050565b6060610b0c82611470565b9050919050565b6000600954610b2260086115c2565b1015610b3857610b31826115d0565b9050610b73565b6040517f08c379a0000000000000000000000000000000000000000000000000000000008152600401610b6a90612a36565b60405180910390fd5b919050565b6000600560008473ffffffffffffffffffffffffffffffffffffffff1673ffffffffffffffffffffffffffffffffffffffff16815260200190815260200160002060008373ffffffffffffffffffffffffffffffffffffffff1673ffffffffffffffffffffffffffffffffffffffff16815260200190815260200160002060009054906101000a900460ff16905092915050565b610c14610dda565b73ffffffffffffffffffffffffffffffffffffffff16610c326109cd565b73ffffffffffffffffffffffffffffffffffffffff1614610c88576040517f08c379a0000000000000000000000000000000000000000000000000000000008152600401610c7f90612938565b60405180910390fd5b600073ffffffffffffffffffffffffffffffffffffffff168173ffffffffffffffffffffffffffffffffffffffff161415610cf8576040517f08c379a0000000000000000000000000000000000000000000000000000000008152600401610cef90612ac8565b60405180910390fd5b610d01816111e1565b50565b60007f01ffc9a7000000000000000000000000000000000000000000000000000000007bffffffffffffffffffffffffffffffffffffffffffffffffffffffff1916827bffffffffffffffffffffffffffffffffffffffffffffffffffffffff1916149050919050565b60008073ffffffffffffffffffffffffffffffffffffffff166002600084815260200190815260200160002060009054906101000a900473ffffffffffffffffffffffffffffffffffffffff1673ffffffffffffffffffffffffffffffffffffffff1614159050919050565b600033905090565b816004600083815260200190815260200160002060006101000a81548173ffffffffffffffffffffffffffffffffffffffff021916908373ffffffffffffffffffffffffffffffffffffffff160217905550808273ffffffffffffffffffffffffffffffffffffffff16610e5583610753565b73ffffffffffffffffffffffffffffffffffffffff167f8c5be1e5ebec7d5bd14f71427d1e84f3dd0314c0f7b2291e5b200ac8c7c3b92560405160405180910390a45050565b6000610ea682610d6e565b610ee5576040517f08c379a0000000000000000000000000000000000000000000000000000000008152600401610edc90612b5a565b60405180910390fd5b6000610ef083610753565b90508073ffffffffffffffffffffffffffffffffffffffff168473ffffffffffffffffffffffffffffffffffffffff161480610f5f57508373ffffffffffffffffffffffffffffffffffffffff16610f4784610530565b73ffffffffffffffffffffffffffffffffffffffff16145b80610f705750610f6f8185610b78565b5b91505092915050565b8273ffffffffffffffffffffffffffffffffffffffff16610f9982610753565b73ffffffffffffffffffffffffffffffffffffffff1614610fef576040517f08c379a0000000000000000000000000000000000000000000000000000000008152600401610fe690612bec565b60405180910390fd5b600073ffffffffffffffffffffffffffffffffffffffff168273ffffffffffffffffffffffffffffffffffffffff16141561105f576040517f08c379a000000000000000000000000000000000000000000000000000000000815260040161105690612c7e565b60405180910390fd5b61106a838383611607565b611075600082610de2565b6001600360008573ffffffffffffffffffffffffffffffffffffffff1673ffffffffffffffffffffffffffffffffffffffff16815260200190815260200160002060008282546110c59190612ccd565b925050819055506001600360008473ffffffffffffffffffffffffffffffffffffffff1673ffffffffffffffffffffffffffffffffffffffff168152602001908152602001600020600082825461111c9190612d01565b92505081905550816002600083815260200190815260200160002060006101000a81548173ffffffffffffffffffffffffffffffffffffffff021916908373ffffffffffffffffffffffffffffffffffffffff160217905550808273ffffffffffffffffffffffffffffffffffffffff168473ffffffffffffffffffffffffffffffffffffffff167fddf252ad1be2c89b69c2b068fc378daa952ba7f163c4a11628f55a4df523b3ef60405160405180910390a4505050565b6111de8161160c565b50565b6000600760009054906101000a900473ffffffffffffffffffffffffffffffffffffffff16905081600760006101000a81548173ffffffffffffffffffffffffffffffffffffffff021916908373ffffffffffffffffffffffffffffffffffffffff1602179055508173ffffffffffffffffffffffffffffffffffffffff168173ffffffffffffffffffffffffffffffffffffffff167f8be0079c531659141344cd1fd0a4f28419497f9722a3daafe3b4186f6b6457e060405160405180910390a35050565b8173ffffffffffffffffffffffffffffffffffffffff168373ffffffffffffffffffffffffffffffffffffffff161415611316576040517f08c379a000000000000000000000000000000000000000000000000000000000815260040161130d90612da3565b60405180910390fd5b80600560008573ffffffffffffffffffffffffffffffffffffffff1673ffffffffffffffffffffffffffffffffffffffff16815260200190815260200160002060008473ffffffffffffffffffffffffffffffffffffffff1673ffffffffffffffffffffffffffffffffffffffff16815260200190815260200160002060006101000a81548160ff0219169083151502179055508173ffffffffffffffffffffffffffffffffffffffff168373ffffffffffffffffffffffffffffffffffffffff167f17307eab39ab6107e8899845ad3d59bd9653f200f220920489ca2b5937696c31836040516114079190611fb8565b60405180910390a3505050565b61141f848484610f79565b61142b8484848461165f565b61146a576040517f08c379a000000000000000000000000000000000000000000000000000000000815260040161146190612e35565b60405180910390fd5b50505050565b606061147b82610d6e565b6114ba576040517f08c379a00000000000000000000000000000000000000000000000000000000081526004016114b190612ec7565b60405180910390fd5b60006006600084815260200190815260200160002080546114da906125e0565b80601f0160208091040260200160405190810160405280929190818152602001828054611506906125e0565b80156115535780601f1061152857610100808354040283529160200191611553565b820191906000526020600020905b81548152906001019060200180831161153657829003601f168201915b5050505050905060006115646117e7565b905060008151141561157a5781925050506115bd565b6000825111156115af578082604051602001611597929190612f23565b604051602081830303815290604052925050506115bd565b6115b884611824565b925050505b919050565b600081600001549050919050565b60006115dc60086118cb565b60006115e860086115c2565b90506115f433826118e1565b6115fe81846118ff565b80915050919050565b505050565b61161581611973565b6000600660008381526020019081526020016000208054611635906125e0565b90501461165c5760066000828152602001908152602001600020600061165b9190611e21565b5b50565b60006116808473ffffffffffffffffffffffffffffffffffffffff16611a84565b156117da578373ffffffffffffffffffffffffffffffffffffffff1663150b7a026116a9610dda565b8786866040518563ffffffff1660e01b81526004016116cb9493929190612f9c565b6020604051808303816000875af192505050801561170757506040513d601f19601f820116820180604052508101906117049190612ffd565b60015b61178a573d8060008114611737576040519150601f19603f3d011682016040523d82523d6000602084013e61173c565b606091505b50600081511415611782576040517f08c379a000000000000000000000000000000000000000000000000000000000815260040161177990612e35565b60405180910390fd5b805181602001fd5b63150b7a0260e01b7bffffffffffffffffffffffffffffffffffffffffffffffffffffffff1916817bffffffffffffffffffffffffffffffffffffffffffffffffffffffff1916149150506117df565b600190505b949350505050565b60606040518060400160405280600781526020017f697066733a2f2f00000000000000000000000000000000000000000000000000815250905090565b606061182f82610d6e565b61186e576040517f08c379a00000000000000000000000000000000000000000000000000000000081526004016118659061309c565b60405180910390fd5b60006118786117e7565b9050600081511161189857604051806020016040528060008152506118c3565b806118a284611a97565b6040516020016118b3929190612f23565b6040516020818303038152906040525b915050919050565b6001816000016000828254019250508190555050565b6118fb828260405180602001604052806000815250611bf8565b5050565b61190882610d6e565b611947576040517f08c379a000000000000000000000000000000000000000000000000000000000815260040161193e9061312e565b60405180910390fd5b8060066000848152602001908152602001600020908051906020019061196e929190611e61565b505050565b600061197e82610753565b905061198c81600084611607565b611997600083610de2565b6001600360008373ffffffffffffffffffffffffffffffffffffffff1673ffffffffffffffffffffffffffffffffffffffff16815260200190815260200160002060008282546119e79190612ccd565b925050819055506002600083815260200190815260200160002060006101000a81549073ffffffffffffffffffffffffffffffffffffffff021916905581600073ffffffffffffffffffffffffffffffffffffffff168273ffffffffffffffffffffffffffffffffffffffff167fddf252ad1be2c89b69c2b068fc378daa952ba7f163c4a11628f55a4df523b3ef60405160405180910390a45050565b600080823b905060008111915050919050565b60606000821415611adf576040518060400160405280600181526020017f30000000000000000000000000000000000000000000000000000000000000008152509050611bf3565b600082905060005b60008214611b11578080611afa9061314e565b915050600a82611b0a91906131c6565b9150611ae7565b60008167ffffffffffffffff811115611b2d57611b2c6122d9565b5b6040519080825280601f01601f191660200182016040528015611b5f5781602001600182028036833780820191505090505b5090505b60008514611bec57600182611b789190612ccd565b9150600a85611b8791906131f7565b6030611b939190612d01565b60f81b818381518110611ba957611ba8613228565b5b60200101907effffffffffffffffffffffffffffffffffffffffffffffffffffffffffffff1916908160001a905350600a85611be591906131c6565b9450611b63565b8093505050505b919050565b611c028383611c53565b611c0f600084848461165f565b611c4e576040517f08c379a0000000000000000000000000000000000000000000000000000000008152600401611c4590612e35565b60405180910390fd5b505050565b600073ffffffffffffffffffffffffffffffffffffffff168273ffffffffffffffffffffffffffffffffffffffff161415611cc3576040517f08c379a0000000000000000000000000000000000000000000000000000000008152600401611cba906132a3565b60405180910390fd5b611ccc81610d6e565b15611d0c576040517f08c379a0000000000000000000000000000000000000000000000000000000008152600401611d039061330f565b60405180910390fd5b611d1860008383611607565b6001600360008473ffffffffffffffffffffffffffffffffffffffff1673ffffffffffffffffffffffffffffffffffffffff1681526020019081526020016000206000828254611d689190612d01565b92505081905550816002600083815260200190815260200160002060006101000a81548173ffffffffffffffffffffffffffffffffffffffff021916908373ffffffffffffffffffffffffffffffffffffffff160217905550808273ffffffffffffffffffffffffffffffffffffffff16600073ffffffffffffffffffffffffffffffffffffffff167fddf252ad1be2c89b69c2b068fc378daa952ba7f163c4a11628f55a4df523b3ef60405160405180910390a45050565b508054611e2d906125e0565b6000825580601f10611e3f5750611e5e565b601f016020900490600052602060002090810190611e5d9190611ee7565b5b50565b828054611e6d906125e0565b90600052602060002090601f016020900481019282611e8f5760008555611ed6565b82601f10611ea857805160ff1916838001178555611ed6565b82800160010185558215611ed6579182015b82811115611ed5578251825591602001919060010190611eba565b5b509050611ee39190611ee7565b5090565b5b80821115611f00576000816000905550600101611ee8565b5090565b6000604051905090565b600080fd5b600080fd5b60007fffffffff0000000000000000000000000000000000000000000000000000000082169050919050565b611f4d81611f18565b8114611f5857600080fd5b50565b600081359050611f6a81611f44565b92915050565b600060208284031215611f8657611f85611f0e565b5b6000611f9484828501611f5b565b91505092915050565b60008115159050919050565b611fb281611f9d565b82525050565b6000602082019050611fcd6000830184611fa9565b92915050565b600081519050919050565b600082825260208201905092915050565b60005b8381101561200d578082015181840152602081019050611ff2565b8381111561201c576000848401525b50505050565b6000601f19601f8301169050919050565b600061203e82611fd3565b6120488185611fde565b9350612058818560208601611fef565b61206181612022565b840191505092915050565b600060208201905081810360008301526120868184612033565b905092915050565b6000819050919050565b6120a18161208e565b81146120ac57600080fd5b50565b6000813590506120be81612098565b92915050565b6000602082840312156120da576120d9611f0e565b5b60006120e8848285016120af565b91505092915050565b600073ffffffffffffffffffffffffffffffffffffffff82169050919050565b600061211c826120f1565b9050919050565b61212c81612111565b82525050565b60006020820190506121476000830184612123565b92915050565b61215681612111565b811461216157600080fd5b50565b6000813590506121738161214d565b92915050565b600080604083850312156121905761218f611f0e565b5b600061219e85828601612164565b92505060206121af858286016120af565b9150509250929050565b6000806000606084860312156121d2576121d1611f0e565b5b60006121e086828701612164565b93505060206121f186828701612164565b9250506040612202868287016120af565b9150509250925092565b6122158161208e565b82525050565b6000602082019050612230600083018461220c565b92915050565b60006020828403121561224c5761224b611f0e565b5b600061225a84828501612164565b91505092915050565b61226c81611f9d565b811461227757600080fd5b50565b60008135905061228981612263565b92915050565b600080604083850312156122a6576122a5611f0e565b5b60006122b485828601612164565b92505060206122c58582860161227a565b9150509250929050565b600080fd5b600080fd5b7f4e487b7100000000000000000000000000000000000000000000000000000000600052604160045260246000fd5b61231182612022565b810181811067ffffffffffffffff821117156123305761232f6122d9565b5b80604052505050565b6000612343611f04565b905061234f8282612308565b919050565b600067ffffffffffffffff82111561236f5761236e6122d9565b5b61237882612022565b9050602081019050919050565b82818337600083830152505050565b60006123a76123a284612354565b612339565b9050828152602081018484840111156123c3576123c26122d4565b5b6123ce848285612385565b509392505050565b600082601f8301126123eb576123ea6122cf565b5b81356123fb848260208601612394565b91505092915050565b6000806000806080858703121561241e5761241d611f0e565b5b600061242c87828801612164565b945050602061243d87828801612164565b935050604061244e878288016120af565b925050606085013567ffffffffffffffff81111561246f5761246e611f13565b5b61247b878288016123d6565b91505092959194509250565b600067ffffffffffffffff8211156124a2576124a16122d9565b5b6124ab82612022565b9050602081019050919050565b60006124cb6124c684612487565b612339565b9050828152602081018484840111156124e7576124e66122d4565b5b6124f2848285612385565b509392505050565b600082601f83011261250f5761250e6122cf565b5b813561251f8482602086016124b8565b91505092915050565b60006020828403121561253e5761253d611f0e565b5b600082013567ffffffffffffffff81111561255c5761255b611f13565b5b612568848285016124fa565b91505092915050565b6000806040838503121561258857612587611f0e565b5b600061259685828601612164565b92505060206125a785828601612164565b9150509250929050565b7f4e487b7100000000000000000000000000000000000000000000000000000000600052602260045260246000fd5b600060028204905060018216806125f857607f821691505b6020821081141561260c5761260b6125b1565b5b50919050565b7f4552433732313a20617070726f76656420717565727920666f72206e6f6e657860008201527f697374656e7420746f6b656e0000000000000000000000000000000000000000602082015250565b600061266e602c83611fde565b915061267982612612565b604082019050919050565b6000602082019050818103600083015261269d81612661565b9050919050565b7f4552433732313a20617070726f76616c20746f2063757272656e74206f776e6560008201527f7200000000000000000000000000000000000000000000000000000000000000602082015250565b6000612700602183611fde565b915061270b826126a4565b604082019050919050565b6000602082019050818103600083015261272f816126f3565b9050919050565b7f4552433732313a20617070726f76652063616c6c6572206973206e6f74206f7760008201527f6e6572206e6f7220617070726f76656420666f7220616c6c0000000000000000602082015250565b6000612792603883611fde565b915061279d82612736565b604082019050919050565b600060208201905081810360008301526127c181612785565b9050919050565b7f4552433732313a207472616e736665722063616c6c6572206973206e6f74206f60008201527f776e6572206e6f7220617070726f766564000000000000000000000000000000602082015250565b6000612824603183611fde565b915061282f826127c8565b604082019050919050565b6000602082019050818103600083015261285381612817565b9050919050565b7f4552433732313a206f776e657220717565727920666f72206e6f6e657869737460008201527f656e7420746f6b656e0000000000000000000000000000000000000000000000602082015250565b60006128b6602983611fde565b91506128c18261285a565b604082019050919050565b600060208201905081810360008301526128e5816128a9565b9050919050565b7f4f776e61626c653a2063616c6c6572206973206e6f7420746865206f776e6572600082015250565b6000612922602083611fde565b915061292d826128ec565b602082019050919050565b6000602082019050818103600083015261295181612915565b9050919050565b7f4552433732313a2062616c616e636520717565727920666f7220746865207a6560008201527f726f206164647265737300000000000000000000000000000000000000000000602082015250565b60006129b4602a83611fde565b91506129bf82612958565b604082019050919050565b600060208201905081810360008301526129e3816129a7565b9050919050565b7f546f6b656e2063616e206e6f742062652067656e657261746564000000000000600082015250565b6000612a20601a83611fde565b9150612a2b826129ea565b602082019050919050565b60006020820190508181036000830152612a4f81612a13565b9050919050565b7f4f776e61626c653a206e6577206f776e657220697320746865207a65726f206160008201527f6464726573730000000000000000000000000000000000000000000000000000602082015250565b6000612ab2602683611fde565b9150612abd82612a56565b604082019050919050565b60006020820190508181036000830152612ae181612aa5565b9050919050565b7f4552433732313a206f70657261746f7220717565727920666f72206e6f6e657860008201527f697374656e7420746f6b656e0000000000000000000000000000000000000000602082015250565b6000612b44602c83611fde565b9150612b4f82612ae8565b604082019050919050565b60006020820190508181036000830152612b7381612b37565b9050919050565b7f4552433732313a207472616e73666572206f6620746f6b656e2074686174206960008201527f73206e6f74206f776e0000000000000000000000000000000000000000000000602082015250565b6000612bd6602983611fde565b9150612be182612b7a565b604082019050919050565b60006020820190508181036000830152612c0581612bc9565b9050919050565b7f4552433732313a207472616e7366657220746f20746865207a65726f2061646460008201527f7265737300000000000000000000000000000000000000000000000000000000602082015250565b6000612c68602483611fde565b9150612c7382612c0c565b604082019050919050565b60006020820190508181036000830152612c9781612c5b565b9050919050565b7f4e487b7100000000000000000000000000000000000000000000000000000000600052601160045260246000fd5b6000612cd88261208e565b9150612ce38361208e565b925082821015612cf657612cf5612c9e565b5b828203905092915050565b6000612d0c8261208e565b9150612d178361208e565b9250827fffffffffffffffffffffffffffffffffffffffffffffffffffffffffffffffff03821115612d4c57612d4b612c9e565b5b828201905092915050565b7f4552433732313a20617070726f766520746f2063616c6c657200000000000000600082015250565b6000612d8d601983611fde565b9150612d9882612d57565b602082019050919050565b60006020820190508181036000830152612dbc81612d80565b9050919050565b7f4552433732313a207472616e7366657220746f206e6f6e20455243373231526560008201527f63656976657220696d706c656d656e7465720000000000000000000000000000602082015250565b6000612e1f603283611fde565b9150612e2a82612dc3565b604082019050919050565b60006020820190508181036000830152612e4e81612e12565b9050919050565b7f45524337323155524953746f726167653a2055524920717565727920666f722060008201527f6e6f6e6578697374656e7420746f6b656e000000000000000000000000000000602082015250565b6000612eb1603183611fde565b9150612ebc82612e55565b604082019050919050565b60006020820190508181036000830152612ee081612ea4565b9050919050565b600081905092915050565b6000612efd82611fd3565b612f078185612ee7565b9350612f17818560208601611fef565b80840191505092915050565b6000612f2f8285612ef2565b9150612f3b8284612ef2565b91508190509392505050565b600081519050919050565b600082825260208201905092915050565b6000612f6e82612f47565b612f788185612f52565b9350612f88818560208601611fef565b612f9181612022565b840191505092915050565b6000608082019050612fb16000830187612123565b612fbe6020830186612123565b612fcb604083018561220c565b8181036060830152612fdd8184612f63565b905095945050505050565b600081519050612ff781611f44565b92915050565b60006020828403121561301357613012611f0e565b5b600061302184828501612fe8565b91505092915050565b7f4552433732314d657461646174613a2055524920717565727920666f72206e6f60008201527f6e6578697374656e7420746f6b656e0000000000000000000000000000000000602082015250565b6000613086602f83611fde565b91506130918261302a565b604082019050919050565b600060208201905081810360008301526130b581613079565b9050919050565b7f45524337323155524953746f726167653a2055524920736574206f66206e6f6e60008201527f6578697374656e7420746f6b656e000000000000000000000000000000000000602082015250565b6000613118602e83611fde565b9150613123826130bc565b604082019050919050565b600060208201905081810360008301526131478161310b565b9050919050565b60006131598261208e565b91507fffffffffffffffffffffffffffffffffffffffffffffffffffffffffffffffff82141561318c5761318b612c9e565b5b600182019050919050565b7f4e487b7100000000000000000000000000000000000000000000000000000000600052601260045260246000fd5b60006131d18261208e565b91506131dc8361208e565b9250826131ec576131eb613197565b5b828204905092915050565b60006132028261208e565b915061320d8361208e565b92508261321d5761321c613197565b5b828206905092915050565b7f4e487b7100000000000000000000000000000000000000000000000000000000600052603260045260246000fd5b7f4552433732313a206d696e7420746f20746865207a65726f2061646472657373600082015250565b600061328d602083611fde565b915061329882613257565b602082019050919050565b600060208201905081810360008301526132bc81613280565b9050919050565b7f4552433732313a20746f6b656e20616c7265616479206d696e74656400000000600082015250565b60006132f9601c83611fde565b9150613304826132c3565b602082019050919050565b60006020820190508181036000830152613328816132ec565b905091905056fea26469706673582212207604579754487acc9f059bc9de4d2c0e78a023559616238c2a05ed9d934a854364736f6c634300080a0033",
  "immutableReferences": {},
  "source": "// SPDX-License-Identifier: MIT\npragma solidity >=0.4.22 <0.9.0;\n\nimport \"@openzeppelin/contracts/token/ERC721/ERC721.sol\";\nimport \"@openzeppelin/contracts/utils/Counters.sol\";\nimport \"@openzeppelin/contracts/access/Ownable.sol\";\nimport \"@openzeppelin/contracts/token/ERC721/extensions/ERC721URIStorage.sol\";\nimport \"@openzeppelin/contracts/token/ERC721/extensions/ERC721Enumerable.sol\";\n\ncontract NFT is ERC721,ERC721URIStorage,Ownable{\n\n    using Counters for Counters.Counter;\n\n    Counters.Counter private _tokenId;\n\n    uint public MAX_SUPPLY;\n\n    constructor(\n    string memory _name,\n    string memory _symbol,\n    uint _MAX_SUPPLY) ERC721(_name,_symbol){\n\n        MAX_SUPPLY = _MAX_SUPPLY;\n        }\n        \n        function _baseURI() internal pure override returns (string memory) {\n        return \"ipfs://\";\n        }\n    \n    function tokenURI(uint256 tokenId)\n        public\n        view\n        override(ERC721, ERC721URIStorage)\n        returns (string memory)\n    {\n        return super.tokenURI(tokenId);\n    }\n\n\n    function _generate(string memory _tokenUrl) private returns(uint256){\n            _tokenId.increment();\n            uint256 newtokenId = _tokenId.current();\n            _safeMint(msg.sender,newtokenId);\n             _setTokenURI(newtokenId,_tokenUrl);\n            return newtokenId;\n    }\n\n\n    // function to mint nft for public users\n    function createNFT(string memory _tokenUrl) public returns(uint256){\n            if(_tokenId.current() < MAX_SUPPLY){\n                return _generate(_tokenUrl);\n            }\n            else{\n                revert(\"Token can not be generated\");\n            }\n        }\n\n\n// function to Burn Tokens\n\n\nfunction burnTokens(uint tokenId)external onlyOwner{\n    _burn(tokenId);\n} \n    function _burn(uint256 tokenId) internal override(ERC721, ERC721URIStorage) {\n        super._burn(tokenId);\n    }\n}\n\n\n\n// const ipfs = create({\n    //   host : 'ipfs.infura.io',\n    //   port : 5001,\n    //   protocol  : 'https',\n    //   headers : {\n    //     authorization : auth\n    //   }\n    // })\n\n    // const cid = await ipfs.add('welcome to neue world')\n    // const addr = `https://cloudflare-ipfs.com/ipfs/${cid.path}`\n    // console.log(addr)\n\n\n      // Connect()\n    // let contract = new w3.eth.Contract(NFT.abi,address)\n    // await contract.methods.owner().call().then(console.log)\n    // let  account = await ethereum.request({ method: 'eth_requestAccounts' });\n    // console.log(account)",
  "sourcePath": "/home/aduttya/Desktop/nft/contracts/NFT.sol",
  "compiler": {
    "name": "solc",
    "version": "0.8.10+commit.fc410830.Emscripten.clang"
  },
  "schemaVersion": "3.4.3",
  "updatedAt": "2021-12-12T08:22:45.517Z",
  "networkType": "ethereum",
  "devdoc": {
    "kind": "dev",
    "methods": {
      "approve(address,uint256)": {
        "details": "See {IERC721-approve}."
      },
      "balanceOf(address)": {
        "details": "See {IERC721-balanceOf}."
      },
      "getApproved(uint256)": {
        "details": "See {IERC721-getApproved}."
      },
      "isApprovedForAll(address,address)": {
        "details": "See {IERC721-isApprovedForAll}."
      },
      "name()": {
        "details": "See {IERC721Metadata-name}."
      },
      "owner()": {
        "details": "Returns the address of the current owner."
      },
      "ownerOf(uint256)": {
        "details": "See {IERC721-ownerOf}."
      },
      "renounceOwnership()": {
        "details": "Leaves the contract without owner. It will not be possible to call `onlyOwner` functions anymore. Can only be called by the current owner. NOTE: Renouncing ownership will leave the contract without an owner, thereby removing any functionality that is only available to the owner."
      },
      "safeTransferFrom(address,address,uint256)": {
        "details": "See {IERC721-safeTransferFrom}."
      },
      "safeTransferFrom(address,address,uint256,bytes)": {
        "details": "See {IERC721-safeTransferFrom}."
      },
      "setApprovalForAll(address,bool)": {
        "details": "See {IERC721-setApprovalForAll}."
      },
      "supportsInterface(bytes4)": {
        "details": "See {IERC165-supportsInterface}."
      },
      "symbol()": {
        "details": "See {IERC721Metadata-symbol}."
      },
      "transferFrom(address,address,uint256)": {
        "details": "See {IERC721-transferFrom}."
      },
      "transferOwnership(address)": {
        "details": "Transfers ownership of the contract to a new account (`newOwner`). Can only be called by the current owner."
      }
    },
    "version": 1
  },
  "userdoc": {
    "kind": "user",
    "methods": {},
    "version": 1
  }
}